{
  "_format": "hh-sol-artifact-1",
  "contractName": "FarmverseToken",
  "sourceName": "contracts/FarmverseToken.sol",
  "abi": [
    {
      "inputs": [],
      "stateMutability": "nonpayable",
      "type": "constructor"
    },
    {
      "inputs": [
        {
          "internalType": "address",
          "name": "spender",
          "type": "address"
        },
        {
          "internalType": "uint256",
          "name": "allowance",
          "type": "uint256"
        },
        {
          "internalType": "uint256",
          "name": "needed",
          "type": "uint256"
        }
      ],
      "name": "ERC20InsufficientAllowance",
      "type": "error"
    },
    {
      "inputs": [
        {
          "internalType": "address",
          "name": "sender",
          "type": "address"
        },
        {
          "internalType": "uint256",
          "name": "balance",
          "type": "uint256"
        },
        {
          "internalType": "uint256",
          "name": "needed",
          "type": "uint256"
        }
      ],
      "name": "ERC20InsufficientBalance",
      "type": "error"
    },
    {
      "inputs": [
        {
          "internalType": "address",
          "name": "approver",
          "type": "address"
        }
      ],
      "name": "ERC20InvalidApprover",
      "type": "error"
    },
    {
      "inputs": [
        {
          "internalType": "address",
          "name": "receiver",
          "type": "address"
        }
      ],
      "name": "ERC20InvalidReceiver",
      "type": "error"
    },
    {
      "inputs": [
        {
          "internalType": "address",
          "name": "sender",
          "type": "address"
        }
      ],
      "name": "ERC20InvalidSender",
      "type": "error"
    },
    {
      "inputs": [
        {
          "internalType": "address",
          "name": "spender",
          "type": "address"
        }
      ],
      "name": "ERC20InvalidSpender",
      "type": "error"
    },
    {
      "anonymous": false,
      "inputs": [
        {
          "indexed": true,
          "internalType": "address",
          "name": "owner",
          "type": "address"
        },
        {
          "indexed": true,
          "internalType": "address",
          "name": "spender",
          "type": "address"
        },
        {
          "indexed": false,
          "internalType": "uint256",
          "name": "value",
          "type": "uint256"
        }
      ],
      "name": "Approval",
      "type": "event"
    },
    {
      "anonymous": false,
      "inputs": [
        {
          "indexed": true,
          "internalType": "address",
          "name": "from",
          "type": "address"
        },
        {
          "indexed": true,
          "internalType": "address",
          "name": "to",
          "type": "address"
        },
        {
          "indexed": false,
          "internalType": "uint256",
          "name": "value",
          "type": "uint256"
        }
      ],
      "name": "Transfer",
      "type": "event"
    },
    {
      "inputs": [
        {
          "internalType": "address",
          "name": "owner",
          "type": "address"
        },
        {
          "internalType": "address",
          "name": "spender",
          "type": "address"
        }
      ],
      "name": "allowance",
      "outputs": [
        {
          "internalType": "uint256",
          "name": "",
          "type": "uint256"
        }
      ],
      "stateMutability": "view",
      "type": "function"
    },
    {
      "inputs": [
        {
          "internalType": "address",
          "name": "spender",
          "type": "address"
        },
        {
          "internalType": "uint256",
          "name": "value",
          "type": "uint256"
        }
      ],
      "name": "approve",
      "outputs": [
        {
          "internalType": "bool",
          "name": "",
          "type": "bool"
        }
      ],
      "stateMutability": "nonpayable",
      "type": "function"
    },
    {
      "inputs": [
        {
          "internalType": "address",
          "name": "account",
          "type": "address"
        }
      ],
      "name": "balanceOf",
      "outputs": [
        {
          "internalType": "uint256",
          "name": "",
          "type": "uint256"
        }
      ],
      "stateMutability": "view",
      "type": "function"
    },
    {
      "inputs": [],
      "name": "decimals",
      "outputs": [
        {
          "internalType": "uint8",
          "name": "",
          "type": "uint8"
        }
      ],
      "stateMutability": "view",
      "type": "function"
    },
    {
      "inputs": [],
      "name": "faucet",
      "outputs": [],
      "stateMutability": "nonpayable",
      "type": "function"
    },
    {
      "inputs": [],
      "name": "name",
      "outputs": [
        {
          "internalType": "string",
          "name": "",
          "type": "string"
        }
      ],
      "stateMutability": "view",
      "type": "function"
    },
    {
      "inputs": [],
      "name": "swapETHForFVT",
      "outputs": [],
      "stateMutability": "payable",
      "type": "function"
    },
    {
      "inputs": [],
      "name": "symbol",
      "outputs": [
        {
          "internalType": "string",
          "name": "",
          "type": "string"
        }
      ],
      "stateMutability": "view",
      "type": "function"
    },
    {
      "inputs": [],
      "name": "totalSupply",
      "outputs": [
        {
          "internalType": "uint256",
          "name": "",
          "type": "uint256"
        }
      ],
      "stateMutability": "view",
      "type": "function"
    },
    {
      "inputs": [
        {
          "internalType": "address",
          "name": "to",
          "type": "address"
        },
        {
          "internalType": "uint256",
          "name": "value",
          "type": "uint256"
        }
      ],
      "name": "transfer",
      "outputs": [
        {
          "internalType": "bool",
          "name": "",
          "type": "bool"
        }
      ],
      "stateMutability": "nonpayable",
      "type": "function"
    },
    {
      "inputs": [
        {
          "internalType": "address",
          "name": "from",
          "type": "address"
        },
        {
          "internalType": "address",
          "name": "to",
          "type": "address"
        },
        {
          "internalType": "uint256",
          "name": "value",
          "type": "uint256"
        }
      ],
      "name": "transferFrom",
      "outputs": [
        {
          "internalType": "bool",
          "name": "",
          "type": "bool"
        }
      ],
      "stateMutability": "nonpayable",
      "type": "function"
    },
    {
      "inputs": [],
      "name": "withdrawETH",
      "outputs": [],
      "stateMutability": "nonpayable",
      "type": "function"
    },
    {
      "stateMutability": "payable",
      "type": "receive"
    }
  ],
  "bytecode": "0x608060405234801561001057600080fd5b506040518060400160405280600f81526020017f4661726d766572736520546f6b656e00000000000000000000000000000000008152506040518060400160405280600381526020017f4656540000000000000000000000000000000000000000000000000000000000815250816003908161008c91906105e1565b50806004908161009c91906105e1565b5050506100d6336100b16100db60201b60201c565b600a6100bd9190610822565b620f42406100cb919061086d565b6100e460201b60201c565b6109a0565b60006012905090565b600073ffffffffffffffffffffffffffffffffffffffff168273ffffffffffffffffffffffffffffffffffffffff16036101565760006040517fec442f0500000000000000000000000000000000000000000000000000000000815260040161014d91906108f0565b60405180910390fd5b6101686000838361016c60201b60201c565b5050565b600073ffffffffffffffffffffffffffffffffffffffff168373ffffffffffffffffffffffffffffffffffffffff16036101be5780600260008282546101b2919061090b565b92505081905550610291565b60008060008573ffffffffffffffffffffffffffffffffffffffff1673ffffffffffffffffffffffffffffffffffffffff1681526020019081526020016000205490508181101561024a578381836040517fe450d38c0000000000000000000000000000000000000000000000000000000081526004016102419392919061094e565b60405180910390fd5b8181036000808673ffffffffffffffffffffffffffffffffffffffff1673ffffffffffffffffffffffffffffffffffffffff16815260200190815260200160002081905550505b600073ffffffffffffffffffffffffffffffffffffffff168273ffffffffffffffffffffffffffffffffffffffff16036102da5780600260008282540392505081905550610327565b806000808473ffffffffffffffffffffffffffffffffffffffff1673ffffffffffffffffffffffffffffffffffffffff168152602001908152602001600020600082825401925050819055505b8173ffffffffffffffffffffffffffffffffffffffff168373ffffffffffffffffffffffffffffffffffffffff167fddf252ad1be2c89b69c2b068fc378daa952ba7f163c4a11628f55a4df523b3ef836040516103849190610985565b60405180910390a3505050565b600081519050919050565b7f4e487b7100000000000000000000000000000000000000000000000000000000600052604160045260246000fd5b7f4e487b7100000000000000000000000000000000000000000000000000000000600052602260045260246000fd5b6000600282049050600182168061041257607f821691505b602082108103610425576104246103cb565b5b50919050565b60008190508160005260206000209050919050565b60006020601f8301049050919050565b600082821b905092915050565b60006008830261048d7fffffffffffffffffffffffffffffffffffffffffffffffffffffffffffffffff82610450565b6104978683610450565b95508019841693508086168417925050509392505050565b6000819050919050565b6000819050919050565b60006104de6104d96104d4846104af565b6104b9565b6104af565b9050919050565b6000819050919050565b6104f8836104c3565b61050c610504826104e5565b84845461045d565b825550505050565b600090565b610521610514565b61052c8184846104ef565b505050565b5b8181101561055057610545600082610519565b600181019050610532565b5050565b601f821115610595576105668161042b565b61056f84610440565b8101602085101561057e578190505b61059261058a85610440565b830182610531565b50505b505050565b600082821c905092915050565b60006105b86000198460080261059a565b1980831691505092915050565b60006105d183836105a7565b9150826002028217905092915050565b6105ea82610391565b67ffffffffffffffff8111156106035761060261039c565b5b61060d82546103fa565b610618828285610554565b600060209050601f83116001811461064b5760008415610639578287015190505b61064385826105c5565b8655506106ab565b601f1984166106598661042b565b60005b828110156106815784890151825560018201915060208501945060208101905061065c565b8683101561069e578489015161069a601f8916826105a7565b8355505b6001600288020188555050505b505050505050565b7f4e487b7100000000000000000000000000000000000000000000000000000000600052601160045260246000fd5b60008160011c9050919050565b6000808291508390505b600185111561073957808604811115610715576107146106b3565b5b60018516156107245780820291505b8081029050610732856106e2565b94506106f9565b94509492505050565b600082610752576001905061080e565b81610760576000905061080e565b81600181146107765760028114610780576107af565b600191505061080e565b60ff841115610792576107916106b3565b5b8360020a9150848211156107a9576107a86106b3565b5b5061080e565b5060208310610133831016604e8410600b84101617156107e45782820a9050838111156107df576107de6106b3565b5b61080e565b6107f184848460016106ef565b92509050818404811115610808576108076106b3565b5b81810290505b9392505050565b600060ff82169050919050565b600061082d826104af565b915061083883610815565b92506108657fffffffffffffffffffffffffffffffffffffffffffffffffffffffffffffffff8484610742565b905092915050565b6000610878826104af565b9150610883836104af565b9250828202610891816104af565b915082820484148315176108a8576108a76106b3565b5b5092915050565b600073ffffffffffffffffffffffffffffffffffffffff82169050919050565b60006108da826108af565b9050919050565b6108ea816108cf565b82525050565b600060208201905061090560008301846108e1565b92915050565b6000610916826104af565b9150610921836104af565b9250828201905080821115610939576109386106b3565b5b92915050565b610948816104af565b82525050565b600060608201905061096360008301866108e1565b610970602083018561093f565b61097d604083018461093f565b949350505050565b600060208201905061099a600083018461093f565b92915050565b6112ae806109af6000396000f3fe6080604052600436106100ab5760003560e01c806395d89b411161006457806395d89b41146101ef578063961a2d291461021a578063a9059cbb14610224578063dd62ed3e14610261578063de5f72fd1461029e578063e086e5ec146102b5576100b2565b806306fdde03146100b7578063095ea7b3146100e257806318160ddd1461011f57806323b872dd1461014a578063313ce5671461018757806370a08231146101b2576100b2565b366100b257005b600080fd5b3480156100c357600080fd5b506100cc6102cc565b6040516100d99190610cd6565b60405180910390f35b3480156100ee57600080fd5b5061010960048036038101906101049190610d91565b61035e565b6040516101169190610dec565b60405180910390f35b34801561012b57600080fd5b50610134610381565b6040516101419190610e16565b60405180910390f35b34801561015657600080fd5b50610171600480360381019061016c9190610e31565b61038b565b60405161017e9190610dec565b60405180910390f35b34801561019357600080fd5b5061019c6103ba565b6040516101a99190610ea0565b60405180910390f35b3480156101be57600080fd5b506101d960048036038101906101d49190610ebb565b6103c3565b6040516101e69190610e16565b60405180910390f35b3480156101fb57600080fd5b5061020461040b565b6040516102119190610cd6565b60405180910390f35b61022261049d565b005b34801561023057600080fd5b5061024b60048036038101906102469190610d91565b610506565b6040516102589190610dec565b60405180910390f35b34801561026d57600080fd5b5061028860048036038101906102839190610ee8565b610529565b6040516102959190610e16565b60405180910390f35b3480156102aa57600080fd5b506102b36105b0565b005b3480156102c157600080fd5b506102ca6105dc565b005b6060600380546102db90610f57565b80601f016020809104026020016040519081016040528092919081815260200182805461030790610f57565b80156103545780601f1061032957610100808354040283529160200191610354565b820191906000526020600020905b81548152906001019060200180831161033757829003601f168201915b5050505050905090565b600080610369610625565b905061037681858561062d565b600191505092915050565b6000600254905090565b600080610396610625565b90506103a385828561063f565b6103ae8585856106d4565b60019150509392505050565b60006012905090565b60008060008373ffffffffffffffffffffffffffffffffffffffff1673ffffffffffffffffffffffffffffffffffffffff168152602001908152602001600020549050919050565b60606004805461041a90610f57565b80601f016020809104026020016040519081016040528092919081815260200182805461044690610f57565b80156104935780601f1061046857610100808354040283529160200191610493565b820191906000526020600020905b81548152906001019060200180831161047657829003601f168201915b5050505050905090565b600034116104e0576040517f08c379a00000000000000000000000000000000000000000000000000000000081526004016104d790610fd4565b60405180910390fd5b6000620186a09050600081346104f69190611023565b905061050233826107c8565b5050565b600080610511610625565b905061051e8185856106d4565b600191505092915050565b6000600160008473ffffffffffffffffffffffffffffffffffffffff1673ffffffffffffffffffffffffffffffffffffffff16815260200190815260200160002060008373ffffffffffffffffffffffffffffffffffffffff1673ffffffffffffffffffffffffffffffffffffffff16815260200190815260200160002054905092915050565b6105da336105bc6103ba565b600a6105c89190611198565b6103e86105d59190611023565b6107c8565b565b3373ffffffffffffffffffffffffffffffffffffffff166108fc479081150290604051600060405180830381858888f19350505050158015610622573d6000803e3d6000fd5b50565b600033905090565b61063a838383600161084a565b505050565b600061064b8484610529565b90507fffffffffffffffffffffffffffffffffffffffffffffffffffffffffffffffff8110156106ce57818110156106be578281836040517ffb8f41b20000000000000000000000000000000000000000000000000000000081526004016106b5939291906111f2565b60405180910390fd5b6106cd8484848403600061084a565b5b50505050565b600073ffffffffffffffffffffffffffffffffffffffff168373ffffffffffffffffffffffffffffffffffffffff16036107465760006040517f96c6fd1e00000000000000000000000000000000000000000000000000000000815260040161073d9190611229565b60405180910390fd5b600073ffffffffffffffffffffffffffffffffffffffff168273ffffffffffffffffffffffffffffffffffffffff16036107b85760006040517fec442f050000000000000000000000000000000000000000000000000000000081526004016107af9190611229565b60405180910390fd5b6107c3838383610a21565b505050565b600073ffffffffffffffffffffffffffffffffffffffff168273ffffffffffffffffffffffffffffffffffffffff160361083a5760006040517fec442f050000000000000000000000000000000000000000000000000000000081526004016108319190611229565b60405180910390fd5b61084660008383610a21565b5050565b600073ffffffffffffffffffffffffffffffffffffffff168473ffffffffffffffffffffffffffffffffffffffff16036108bc5760006040517fe602df050000000000000000000000000000000000000000000000000000000081526004016108b39190611229565b60405180910390fd5b600073ffffffffffffffffffffffffffffffffffffffff168373ffffffffffffffffffffffffffffffffffffffff160361092e5760006040517f94280d620000000000000000000000000000000000000000000000000000000081526004016109259190611229565b60405180910390fd5b81600160008673ffffffffffffffffffffffffffffffffffffffff1673ffffffffffffffffffffffffffffffffffffffff16815260200190815260200160002060008573ffffffffffffffffffffffffffffffffffffffff1673ffffffffffffffffffffffffffffffffffffffff168152602001908152602001600020819055508015610a1b578273ffffffffffffffffffffffffffffffffffffffff168473ffffffffffffffffffffffffffffffffffffffff167f8c5be1e5ebec7d5bd14f71427d1e84f3dd0314c0f7b2291e5b200ac8c7c3b92584604051610a129190610e16565b60405180910390a35b50505050565b600073ffffffffffffffffffffffffffffffffffffffff168373ffffffffffffffffffffffffffffffffffffffff1603610a73578060026000828254610a679190611244565b92505081905550610b46565b60008060008573ffffffffffffffffffffffffffffffffffffffff1673ffffffffffffffffffffffffffffffffffffffff16815260200190815260200160002054905081811015610aff578381836040517fe450d38c000000000000000000000000000000000000000000000000000000008152600401610af6939291906111f2565b60405180910390fd5b8181036000808673ffffffffffffffffffffffffffffffffffffffff1673ffffffffffffffffffffffffffffffffffffffff16815260200190815260200160002081905550505b600073ffffffffffffffffffffffffffffffffffffffff168273ffffffffffffffffffffffffffffffffffffffff1603610b8f5780600260008282540392505081905550610bdc565b806000808473ffffffffffffffffffffffffffffffffffffffff1673ffffffffffffffffffffffffffffffffffffffff168152602001908152602001600020600082825401925050819055505b8173ffffffffffffffffffffffffffffffffffffffff168373ffffffffffffffffffffffffffffffffffffffff167fddf252ad1be2c89b69c2b068fc378daa952ba7f163c4a11628f55a4df523b3ef83604051610c399190610e16565b60405180910390a3505050565b600081519050919050565b600082825260208201905092915050565b60005b83811015610c80578082015181840152602081019050610c65565b60008484015250505050565b6000601f19601f8301169050919050565b6000610ca882610c46565b610cb28185610c51565b9350610cc2818560208601610c62565b610ccb81610c8c565b840191505092915050565b60006020820190508181036000830152610cf08184610c9d565b905092915050565b600080fd5b600073ffffffffffffffffffffffffffffffffffffffff82169050919050565b6000610d2882610cfd565b9050919050565b610d3881610d1d565b8114610d4357600080fd5b50565b600081359050610d5581610d2f565b92915050565b6000819050919050565b610d6e81610d5b565b8114610d7957600080fd5b50565b600081359050610d8b81610d65565b92915050565b60008060408385031215610da857610da7610cf8565b5b6000610db685828601610d46565b9250506020610dc785828601610d7c565b9150509250929050565b60008115159050919050565b610de681610dd1565b82525050565b6000602082019050610e016000830184610ddd565b92915050565b610e1081610d5b565b82525050565b6000602082019050610e2b6000830184610e07565b92915050565b600080600060608486031215610e4a57610e49610cf8565b5b6000610e5886828701610d46565b9350506020610e6986828701610d46565b9250506040610e7a86828701610d7c565b9150509250925092565b600060ff82169050919050565b610e9a81610e84565b82525050565b6000602082019050610eb56000830184610e91565b92915050565b600060208284031215610ed157610ed0610cf8565b5b6000610edf84828501610d46565b91505092915050565b60008060408385031215610eff57610efe610cf8565b5b6000610f0d85828601610d46565b9250506020610f1e85828601610d46565b9150509250929050565b7f4e487b7100000000000000000000000000000000000000000000000000000000600052602260045260246000fd5b60006002820490506001821680610f6f57607f821691505b602082108103610f8257610f81610f28565b5b50919050565b7f5068616920677569206d6f74206c756f6e672045544800000000000000000000600082015250565b6000610fbe601683610c51565b9150610fc982610f88565b602082019050919050565b60006020820190508181036000830152610fed81610fb1565b9050919050565b7f4e487b7100000000000000000000000000000000000000000000000000000000600052601160045260246000fd5b600061102e82610d5b565b915061103983610d5b565b925082820261104781610d5b565b9150828204841483151761105e5761105d610ff4565b5b5092915050565b60008160011c9050919050565b6000808291508390505b60018511156110bc5780860481111561109857611097610ff4565b5b60018516156110a75780820291505b80810290506110b585611065565b945061107c565b94509492505050565b6000826110d55760019050611191565b816110e35760009050611191565b81600181146110f9576002811461110357611132565b6001915050611191565b60ff84111561111557611114610ff4565b5b8360020a91508482111561112c5761112b610ff4565b5b50611191565b5060208310610133831016604e8410600b84101617156111675782820a90508381111561116257611161610ff4565b5b611191565b6111748484846001611072565b9250905081840481111561118b5761118a610ff4565b5b81810290505b9392505050565b60006111a382610d5b565b91506111ae83610e84565b92506111db7fffffffffffffffffffffffffffffffffffffffffffffffffffffffffffffffff84846110c5565b905092915050565b6111ec81610d1d565b82525050565b600060608201905061120760008301866111e3565b6112146020830185610e07565b6112216040830184610e07565b949350505050565b600060208201905061123e60008301846111e3565b92915050565b600061124f82610d5b565b915061125a83610d5b565b925082820190508082111561127257611271610ff4565b5b9291505056fea26469706673582212200590c7a3dbba321512b567a963fec08ffb951dd0023ccf5e6e54e94ae4e398cd64736f6c634300081c0033",
  "linkReferences": {},
  "deployedLinkReferences": {}
}