{
  "_format": "hh-sol-artifact-1",
  "contractName": "TransactionLogger",
  "sourceName": "contracts/TransactionLogger.sol",
  "abi": [
    {
      "anonymous": false,
      "inputs": [
        {
          "indexed": true,
          "internalType": "address",
          "name": "user",
          "type": "address"
        },
        {
          "indexed": false,
          "internalType": "enum TransactionLogger.TransactionType",
          "name": "txType",
          "type": "uint8"
        },
        {
          "indexed": false,
          "internalType": "uint256",
          "name": "amount",
          "type": "uint256"
        },
        {
          "indexed": false,
          "internalType": "uint256",
          "name": "timestamp",
          "type": "uint256"
        }
      ],
      "name": "TransactionRecorded",
      "type": "event"
    },
    {
      "inputs": [
        {
          "internalType": "uint256",
          "name": "index",
          "type": "uint256"
        }
      ],
      "name": "getTransaction",
      "outputs": [
        {
          "internalType": "address",
          "name": "user",
          "type": "address"
        },
        {
          "internalType": "enum TransactionLogger.TransactionType",
          "name": "txType",
          "type": "uint8"
        },
        {
          "internalType": "uint256",
          "name": "amount",
          "type": "uint256"
        },
        {
          "internalType": "uint256",
          "name": "timestamp",
          "type": "uint256"
        }
      ],
      "stateMutability": "view",
      "type": "function"
    },
    {
      "inputs": [],
      "name": "getTransactionCount",
      "outputs": [
        {
          "internalType": "uint256",
          "name": "",
          "type": "uint256"
        }
      ],
      "stateMutability": "view",
      "type": "function"
    },
    {
      "inputs": [
        {
          "internalType": "enum TransactionLogger.TransactionType",
          "name": "txType",
          "type": "uint8"
        },
        {
          "internalType": "uint256",
          "name": "amount",
          "type": "uint256"
        }
      ],
      "name": "recordTransaction",
      "outputs": [],
      "stateMutability": "nonpayable",
      "type": "function"
    },
    {
      "inputs": [
        {
          "internalType": "uint256",
          "name": "",
          "type": "uint256"
        }
      ],
      "name": "transactions",
      "outputs": [
        {
          "internalType": "address",
          "name": "user",
          "type": "address"
        },
        {
          "internalType": "enum TransactionLogger.TransactionType",
          "name": "txType",
          "type": "uint8"
        },
        {
          "internalType": "uint256",
          "name": "amount",
          "type": "uint256"
        },
        {
          "internalType": "uint256",
          "name": "timestamp",
          "type": "uint256"
        }
      ],
      "stateMutability": "view",
      "type": "function"
    }
  ],
  "bytecode": "0x6080604052348015600f57600080fd5b506106568061001f6000396000f3fe608060405234801561001057600080fd5b506004361061004c5760003560e01c80632e7700f01461005157806330c82b1e1461006f57806333ea3dc81461008b5780639ace38c2146100be575b600080fd5b6100596100f1565b60405161006691906103df565b60405180910390f35b61008960048036038101906100849190610450565b6100fd565b005b6100a560048036038101906100a09190610490565b61025a565b6040516100b59493929190610575565b60405180910390f35b6100d860048036038101906100d39190610490565b610359565b6040516100e89493929190610575565b60405180910390f35b60008080549050905090565b600060405180608001604052803373ffffffffffffffffffffffffffffffffffffffff168152602001846001811115610139576101386104fe565b5b8152602001838152602001428152509050600081908060018154018082558091505060019003906000526020600020906003020160009091909190915060008201518160000160006101000a81548173ffffffffffffffffffffffffffffffffffffffff021916908373ffffffffffffffffffffffffffffffffffffffff16021790555060208201518160000160146101000a81548160ff021916908360018111156101e8576101e76104fe565b5b0217905550604082015181600101556060820151816002015550503373ffffffffffffffffffffffffffffffffffffffff167fffcdadec39f4c3b4191aae0a97857b7b959c4231fd1ee49eafaa101e94d46ef984844260405161024d939291906105ba565b60405180910390a2505050565b6000806000806000808681548110610275576102746105f1565b5b90600052602060002090600302016040518060800160405290816000820160009054906101000a900473ffffffffffffffffffffffffffffffffffffffff1673ffffffffffffffffffffffffffffffffffffffff1673ffffffffffffffffffffffffffffffffffffffff1681526020016000820160149054906101000a900460ff166001811115610309576103086104fe565b5b600181111561031b5761031a6104fe565b5b815260200160018201548152602001600282015481525050905080600001518160200151826040015183606001519450945094509450509193509193565b6000818154811061036957600080fd5b90600052602060002090600302016000915090508060000160009054906101000a900473ffffffffffffffffffffffffffffffffffffffff16908060000160149054906101000a900460ff16908060010154908060020154905084565b6000819050919050565b6103d9816103c6565b82525050565b60006020820190506103f460008301846103d0565b92915050565b600080fd5b6002811061040c57600080fd5b50565b60008135905061041e816103ff565b92915050565b61042d816103c6565b811461043857600080fd5b50565b60008135905061044a81610424565b92915050565b60008060408385031215610467576104666103fa565b5b60006104758582860161040f565b92505060206104868582860161043b565b9150509250929050565b6000602082840312156104a6576104a56103fa565b5b60006104b48482850161043b565b91505092915050565b600073ffffffffffffffffffffffffffffffffffffffff82169050919050565b60006104e8826104bd565b9050919050565b6104f8816104dd565b82525050565b7f4e487b7100000000000000000000000000000000000000000000000000000000600052602160045260246000fd5b6002811061053e5761053d6104fe565b5b50565b600081905061054f8261052d565b919050565b600061055f82610541565b9050919050565b61056f81610554565b82525050565b600060808201905061058a60008301876104ef565b6105976020830186610566565b6105a460408301856103d0565b6105b160608301846103d0565b95945050505050565b60006060820190506105cf6000830186610566565b6105dc60208301856103d0565b6105e960408301846103d0565b949350505050565b7f4e487b7100000000000000000000000000000000000000000000000000000000600052603260045260246000fdfea26469706673582212209b50015fc16271d5c4dcc61057e410f6b5ed3c61b00abc6c8a9a2b9bd4aac42964736f6c634300081c0033",
  "linkReferences": {},
  "deployedLinkReferences": {}
}