{
  "_format": "hh-sol-artifact-1",
  "contractName": "TreeRental",
  "sourceName": "contracts/TreeRental.sol",
  "abi": [
    {
      "inputs": [
        {
          "internalType": "address",
          "name": "_token",
          "type": "address"
        }
      ],
      "stateMutability": "nonpayable",
      "type": "constructor"
    },
    {
      "anonymous": false,
      "inputs": [
        {
          "indexed": true,
          "internalType": "address",
          "name": "renter",
          "type": "address"
        },
        {
          "indexed": true,
          "internalType": "uint256",
          "name": "rentalId",
          "type": "uint256"
        }
      ],
      "name": "RentalCanceled",
      "type": "event"
    },
    {
      "anonymous": false,
      "inputs": [
        {
          "indexed": true,
          "internalType": "address",
          "name": "renter",
          "type": "address"
        },
        {
          "indexed": true,
          "internalType": "uint256",
          "name": "treeId",
          "type": "uint256"
        },
        {
          "indexed": false,
          "internalType": "uint256",
          "name": "rentalId",
          "type": "uint256"
        },
        {
          "indexed": false,
          "internalType": "string",
          "name": "contractHash",
          "type": "string"
        }
      ],
      "name": "TreeRented",
      "type": "event"
    },
    {
      "inputs": [
        {
          "internalType": "uint256",
          "name": "rentalId",
          "type": "uint256"
        }
      ],
      "name": "cancel",
      "outputs": [],
      "stateMutability": "nonpayable",
      "type": "function"
    },
    {
      "inputs": [
        {
          "internalType": "uint256",
          "name": "treeId",
          "type": "uint256"
        },
        {
          "internalType": "uint256",
          "name": "costPerYear",
          "type": "uint256"
        },
        {
          "internalType": "string",
          "name": "contractHash",
          "type": "string"
        }
      ],
      "name": "rentTree",
      "outputs": [],
      "stateMutability": "nonpayable",
      "type": "function"
    },
    {
      "inputs": [
        {
          "internalType": "uint256",
          "name": "",
          "type": "uint256"
        }
      ],
      "name": "rentals",
      "outputs": [
        {
          "internalType": "address",
          "name": "renter",
          "type": "address"
        },
        {
          "internalType": "uint256",
          "name": "treeId",
          "type": "uint256"
        },
        {
          "internalType": "uint256",
          "name": "startTime",
          "type": "uint256"
        },
        {
          "internalType": "uint256",
          "name": "endTime",
          "type": "uint256"
        },
        {
          "internalType": "uint256",
          "name": "cost",
          "type": "uint256"
        },
        {
          "internalType": "bool",
          "name": "canceled",
          "type": "bool"
        },
        {
          "internalType": "string",
          "name": "contractHash",
          "type": "string"
        }
      ],
      "stateMutability": "view",
      "type": "function"
    },
    {
      "inputs": [],
      "name": "token",
      "outputs": [
        {
          "internalType": "contract IERC20",
          "name": "",
          "type": "address"
        }
      ],
      "stateMutability": "view",
      "type": "function"
    }
  ],
  "bytecode": "0x608060405234801561001057600080fd5b50604051611090380380611090833981810160405281019061003291906100db565b806000806101000a81548173ffffffffffffffffffffffffffffffffffffffff021916908373ffffffffffffffffffffffffffffffffffffffff16021790555050610108565b600080fd5b600073ffffffffffffffffffffffffffffffffffffffff82169050919050565b60006100a88261007d565b9050919050565b6100b88161009d565b81146100c357600080fd5b50565b6000815190506100d5816100af565b92915050565b6000602082840312156100f1576100f0610078565b5b60006100ff848285016100c6565b91505092915050565b610f79806101176000396000f3fe608060405234801561001057600080fd5b506004361061004c5760003560e01c806340e58ee5146100515780636cb5bfb41461006d578063af94a1d114610089578063fc0c546a146100bf575b600080fd5b61006b600480360381019061006691906105e9565b6100dd565b005b6100876004803603810190610082919061075c565b6101fc565b005b6100a3600480360381019061009e91906105e9565b610474565b6040516100b697969594939291906108b5565b60405180910390f35b6100c761057b565b6040516100d4919061098a565b60405180910390f35b6000600182815481106100f3576100f26109a5565b5b906000526020600020906007020190508060000160009054906101000a900473ffffffffffffffffffffffffffffffffffffffff1673ffffffffffffffffffffffffffffffffffffffff163373ffffffffffffffffffffffffffffffffffffffff1614610195576040517f08c379a000000000000000000000000000000000000000000000000000000000815260040161018c90610a20565b60405180910390fd5b806003015442106101db576040517f08c379a00000000000000000000000000000000000000000000000000000000081526004016101d290610a8c565b60405180910390fd5b60018160050160006101000a81548160ff0219169083151502179055505050565b60006301e13380905060008054906101000a900473ffffffffffffffffffffffffffffffffffffffff1673ffffffffffffffffffffffffffffffffffffffff166323b872dd3330866040518463ffffffff1660e01b815260040161026293929190610aac565b6020604051808303816000875af1158015610281573d6000803e3d6000fd5b505050506040513d601f19601f820116820180604052508101906102a59190610b0f565b6102e4576040517f08c379a00000000000000000000000000000000000000000000000000000000081526004016102db90610b88565b60405180910390fd5b60016040518060e001604052803373ffffffffffffffffffffffffffffffffffffffff16815260200186815260200142815260200183426103259190610bd7565b815260200185815260200160001515815260200184815250908060018154018082558091505060019003906000526020600020906007020160009091909190915060008201518160000160006101000a81548173ffffffffffffffffffffffffffffffffffffffff021916908373ffffffffffffffffffffffffffffffffffffffff1602179055506020820151816001015560408201518160020155606082015181600301556080820151816004015560a08201518160050160006101000a81548160ff02191690831515021790555060c082015181600601908161040a9190610e0d565b505050833373ffffffffffffffffffffffffffffffffffffffff167f059e45d81f317a03e9967125f2aea917e4d1769fa4a0bab036fa11a4e9bcdac7600180805490506104579190610edf565b85604051610466929190610f13565b60405180910390a350505050565b6001818154811061048457600080fd5b90600052602060002090600702016000915090508060000160009054906101000a900473ffffffffffffffffffffffffffffffffffffffff16908060010154908060020154908060030154908060040154908060050160009054906101000a900460ff16908060060180546104f890610c3a565b80601f016020809104026020016040519081016040528092919081815260200182805461052490610c3a565b80156105715780601f1061054657610100808354040283529160200191610571565b820191906000526020600020905b81548152906001019060200180831161055457829003601f168201915b5050505050905087565b60008054906101000a900473ffffffffffffffffffffffffffffffffffffffff1681565b6000604051905090565b600080fd5b600080fd5b6000819050919050565b6105c6816105b3565b81146105d157600080fd5b50565b6000813590506105e3816105bd565b92915050565b6000602082840312156105ff576105fe6105a9565b5b600061060d848285016105d4565b91505092915050565b600080fd5b600080fd5b6000601f19601f8301169050919050565b7f4e487b7100000000000000000000000000000000000000000000000000000000600052604160045260246000fd5b61066982610620565b810181811067ffffffffffffffff8211171561068857610687610631565b5b80604052505050565b600061069b61059f565b90506106a78282610660565b919050565b600067ffffffffffffffff8211156106c7576106c6610631565b5b6106d082610620565b9050602081019050919050565b82818337600083830152505050565b60006106ff6106fa846106ac565b610691565b90508281526020810184848401111561071b5761071a61061b565b5b6107268482856106dd565b509392505050565b600082601f83011261074357610742610616565b5b81356107538482602086016106ec565b91505092915050565b600080600060608486031215610775576107746105a9565b5b6000610783868287016105d4565b9350506020610794868287016105d4565b925050604084013567ffffffffffffffff8111156107b5576107b46105ae565b5b6107c18682870161072e565b9150509250925092565b600073ffffffffffffffffffffffffffffffffffffffff82169050919050565b60006107f6826107cb565b9050919050565b610806816107eb565b82525050565b610815816105b3565b82525050565b60008115159050919050565b6108308161081b565b82525050565b600081519050919050565b600082825260208201905092915050565b60005b83811015610870578082015181840152602081019050610855565b60008484015250505050565b600061088782610836565b6108918185610841565b93506108a1818560208601610852565b6108aa81610620565b840191505092915050565b600060e0820190506108ca600083018a6107fd565b6108d7602083018961080c565b6108e4604083018861080c565b6108f1606083018761080c565b6108fe608083018661080c565b61090b60a0830185610827565b81810360c083015261091d818461087c565b905098975050505050505050565b6000819050919050565b600061095061094b610946846107cb565b61092b565b6107cb565b9050919050565b600061096282610935565b9050919050565b600061097482610957565b9050919050565b61098481610969565b82525050565b600060208201905061099f600083018461097b565b92915050565b7f4e487b7100000000000000000000000000000000000000000000000000000000600052603260045260246000fd5b7f4e6f7420796f75722072656e74616c0000000000000000000000000000000000600082015250565b6000610a0a600f83610841565b9150610a15826109d4565b602082019050919050565b60006020820190508181036000830152610a39816109fd565b9050919050565b7f416c726561647920657870697265640000000000000000000000000000000000600082015250565b6000610a76600f83610841565b9150610a8182610a40565b602082019050919050565b60006020820190508181036000830152610aa581610a69565b9050919050565b6000606082019050610ac160008301866107fd565b610ace60208301856107fd565b610adb604083018461080c565b949350505050565b610aec8161081b565b8114610af757600080fd5b50565b600081519050610b0981610ae3565b92915050565b600060208284031215610b2557610b246105a9565b5b6000610b3384828501610afa565b91505092915050565b7f5061796d656e74206661696c6564000000000000000000000000000000000000600082015250565b6000610b72600e83610841565b9150610b7d82610b3c565b602082019050919050565b60006020820190508181036000830152610ba181610b65565b9050919050565b7f4e487b7100000000000000000000000000000000000000000000000000000000600052601160045260246000fd5b6000610be2826105b3565b9150610bed836105b3565b9250828201905080821115610c0557610c04610ba8565b5b92915050565b7f4e487b7100000000000000000000000000000000000000000000000000000000600052602260045260246000fd5b60006002820490506001821680610c5257607f821691505b602082108103610c6557610c64610c0b565b5b50919050565b60008190508160005260206000209050919050565b60006020601f8301049050919050565b600082821b905092915050565b600060088302610ccd7fffffffffffffffffffffffffffffffffffffffffffffffffffffffffffffffff82610c90565b610cd78683610c90565b95508019841693508086168417925050509392505050565b6000610d0a610d05610d00846105b3565b61092b565b6105b3565b9050919050565b6000819050919050565b610d2483610cef565b610d38610d3082610d11565b848454610c9d565b825550505050565b600090565b610d4d610d40565b610d58818484610d1b565b505050565b5b81811015610d7c57610d71600082610d45565b600181019050610d5e565b5050565b601f821115610dc157610d9281610c6b565b610d9b84610c80565b81016020851015610daa578190505b610dbe610db685610c80565b830182610d5d565b50505b505050565b600082821c905092915050565b6000610de460001984600802610dc6565b1980831691505092915050565b6000610dfd8383610dd3565b9150826002028217905092915050565b610e1682610836565b67ffffffffffffffff811115610e2f57610e2e610631565b5b610e398254610c3a565b610e44828285610d80565b600060209050601f831160018114610e775760008415610e65578287015190505b610e6f8582610df1565b865550610ed7565b601f198416610e8586610c6b565b60005b82811015610ead57848901518255600182019150602085019450602081019050610e88565b86831015610eca5784890151610ec6601f891682610dd3565b8355505b6001600288020188555050505b505050505050565b6000610eea826105b3565b9150610ef5836105b3565b9250828203905081811115610f0d57610f0c610ba8565b5b92915050565b6000604082019050610f28600083018561080c565b8181036020830152610f3a818461087c565b9050939250505056fea264697066735822122060a13f32fb13c5336a2c6b74e0cbdffce712588a82264c80e6c28a1f1c3e674364736f6c634300081c0033",
  "linkReferences": {},
  "deployedLinkReferences": {}
}