{
  "_format": "hh-sol-artifact-1",
  "contractName": "TreeRental",
  "sourceName": "contracts/TreeRental.sol",
  "abi": [
    {
      "inputs": [
        {
          "internalType": "address",
          "name": "_token",
          "type": "address"
        }
      ],
      "stateMutability": "nonpayable",
      "type": "constructor"
    },
    {
      "inputs": [
        {
          "internalType": "uint256",
          "name": "rentalId",
          "type": "uint256"
        }
      ],
      "name": "cancel",
      "outputs": [],
      "stateMutability": "nonpayable",
      "type": "function"
    },
    {
      "inputs": [
        {
          "internalType": "uint256",
          "name": "treeId",
          "type": "uint256"
        },
        {
          "internalType": "uint256",
          "name": "costPerYear",
          "type": "uint256"
        }
      ],
      "name": "rentTree",
      "outputs": [],
      "stateMutability": "nonpayable",
      "type": "function"
    },
    {
      "inputs": [
        {
          "internalType": "uint256",
          "name": "",
          "type": "uint256"
        }
      ],
      "name": "rentals",
      "outputs": [
        {
          "internalType": "address",
          "name": "renter",
          "type": "address"
        },
        {
          "internalType": "uint256",
          "name": "treeId",
          "type": "uint256"
        },
        {
          "internalType": "uint256",
          "name": "startTime",
          "type": "uint256"
        },
        {
          "internalType": "uint256",
          "name": "endTime",
          "type": "uint256"
        },
        {
          "internalType": "uint256",
          "name": "cost",
          "type": "uint256"
        },
        {
          "internalType": "bool",
          "name": "canceled",
          "type": "bool"
        }
      ],
      "stateMutability": "view",
      "type": "function"
    },
    {
      "inputs": [],
      "name": "token",
      "outputs": [
        {
          "internalType": "contract IERC20",
          "name": "",
          "type": "address"
        }
      ],
      "stateMutability": "view",
      "type": "function"
    }
  ],
  "bytecode": "0x608060405234801561001057600080fd5b50604051610a44380380610a44833981810160405281019061003291906100db565b806000806101000a81548173ffffffffffffffffffffffffffffffffffffffff021916908373ffffffffffffffffffffffffffffffffffffffff16021790555050610108565b600080fd5b600073ffffffffffffffffffffffffffffffffffffffff82169050919050565b60006100a88261007d565b9050919050565b6100b88161009d565b81146100c357600080fd5b50565b6000815190506100d5816100af565b92915050565b6000602082840312156100f1576100f0610078565b5b60006100ff848285016100c6565b91505092915050565b61092d806101176000396000f3fe608060405234801561001057600080fd5b506004361061004c5760003560e01c806340e58ee5146100515780638f7f82141461006d578063af94a1d114610089578063fc0c546a146100be575b600080fd5b61006b600480360381019061006691906104cd565b6100dc565b005b610087600480360381019061008291906104fa565b6101fb565b005b6100a3600480360381019061009e91906104cd565b6103f5565b6040516100b5969594939291906105a5565b60405180910390f35b6100c661046e565b6040516100d39190610665565b60405180910390f35b6000600182815481106100f2576100f1610680565b5b906000526020600020906006020190508060000160009054906101000a900473ffffffffffffffffffffffffffffffffffffffff1673ffffffffffffffffffffffffffffffffffffffff163373ffffffffffffffffffffffffffffffffffffffff1614610194576040517f08c379a000000000000000000000000000000000000000000000000000000000815260040161018b9061070c565b60405180910390fd5b806003015442106101da576040517f08c379a00000000000000000000000000000000000000000000000000000000081526004016101d190610778565b60405180910390fd5b60018160050160006101000a81548160ff0219169083151502179055505050565b60006301e13380905060008054906101000a900473ffffffffffffffffffffffffffffffffffffffff1673ffffffffffffffffffffffffffffffffffffffff166323b872dd3330856040518463ffffffff1660e01b815260040161026193929190610798565b6020604051808303816000875af1158015610280573d6000803e3d6000fd5b505050506040513d601f19601f820116820180604052508101906102a491906107fb565b6102e3576040517f08c379a00000000000000000000000000000000000000000000000000000000081526004016102da90610874565b60405180910390fd5b60016040518060c001604052803373ffffffffffffffffffffffffffffffffffffffff168152602001858152602001428152602001834261032491906108c3565b815260200184815260200160001515815250908060018154018082558091505060019003906000526020600020906006020160009091909190915060008201518160000160006101000a81548173ffffffffffffffffffffffffffffffffffffffff021916908373ffffffffffffffffffffffffffffffffffffffff1602179055506020820151816001015560408201518160020155606082015181600301556080820151816004015560a08201518160050160006101000a81548160ff0219169083151502179055505050505050565b6001818154811061040557600080fd5b90600052602060002090600602016000915090508060000160009054906101000a900473ffffffffffffffffffffffffffffffffffffffff16908060010154908060020154908060030154908060040154908060050160009054906101000a900460ff16905086565b60008054906101000a900473ffffffffffffffffffffffffffffffffffffffff1681565b600080fd5b6000819050919050565b6104aa81610497565b81146104b557600080fd5b50565b6000813590506104c7816104a1565b92915050565b6000602082840312156104e3576104e2610492565b5b60006104f1848285016104b8565b91505092915050565b6000806040838503121561051157610510610492565b5b600061051f858286016104b8565b9250506020610530858286016104b8565b9150509250929050565b600073ffffffffffffffffffffffffffffffffffffffff82169050919050565b60006105658261053a565b9050919050565b6105758161055a565b82525050565b61058481610497565b82525050565b60008115159050919050565b61059f8161058a565b82525050565b600060c0820190506105ba600083018961056c565b6105c7602083018861057b565b6105d4604083018761057b565b6105e1606083018661057b565b6105ee608083018561057b565b6105fb60a0830184610596565b979650505050505050565b6000819050919050565b600061062b6106266106218461053a565b610606565b61053a565b9050919050565b600061063d82610610565b9050919050565b600061064f82610632565b9050919050565b61065f81610644565b82525050565b600060208201905061067a6000830184610656565b92915050565b7f4e487b7100000000000000000000000000000000000000000000000000000000600052603260045260246000fd5b600082825260208201905092915050565b7f4e6f7420796f75722072656e74616c0000000000000000000000000000000000600082015250565b60006106f6600f836106af565b9150610701826106c0565b602082019050919050565b60006020820190508181036000830152610725816106e9565b9050919050565b7f416c726561647920657870697265640000000000000000000000000000000000600082015250565b6000610762600f836106af565b915061076d8261072c565b602082019050919050565b6000602082019050818103600083015261079181610755565b9050919050565b60006060820190506107ad600083018661056c565b6107ba602083018561056c565b6107c7604083018461057b565b949350505050565b6107d88161058a565b81146107e357600080fd5b50565b6000815190506107f5816107cf565b92915050565b60006020828403121561081157610810610492565b5b600061081f848285016107e6565b91505092915050565b7f5061796d656e74206661696c6564000000000000000000000000000000000000600082015250565b600061085e600e836106af565b915061086982610828565b602082019050919050565b6000602082019050818103600083015261088d81610851565b9050919050565b7f4e487b7100000000000000000000000000000000000000000000000000000000600052601160045260246000fd5b60006108ce82610497565b91506108d983610497565b92508282019050808211156108f1576108f0610894565b5b9291505056fea2646970667358221220c7700e3cfab9439a918fa3ff7abe740cbe0fa585c049c744563fc5c07dcd577664736f6c634300081c0033",
  "linkReferences": {},
  "deployedLinkReferences": {}
}